:020000040800F2
:100000002DE9F84F04005FF0000900F09CFADFF8DA
:1000100034A2DAF80000002801D100F0B6F8002C74
:100020000FD089480168083114F00700091A0D0043
:100030005FF0FF30401BA04201D32C1901E00020EB
:100040000400002C55D4002C53D0DFF800B2DBF8AC
:100050000000A0424DD37E4807000068060070688B
:10006000A04205D23068002802D037003668F6E793
:10007000DAF8000086423CD07348396802681144BF
:10008000894631683960006840007168091B884200
:1000900016D206EB0400804618F00700002807D0AF
:1000A000502080F31188BFF34F8FBFF36F8FFEE7AF
:1000B0007068001BC8F804007460404600F092F8B5
:1000C000DBF800107068091ACBF800106148DBF803
:1000D00000100268914202D2DBF8001001607068E3
:1000E00050F000407060002030605B480168491C9F
:1000F000016000F02EFA19F00700002807D0502008
:1001000080F31188BFF34F8FBFF36F8FFEE7484630
:10011000BDE8F28F70B504002600002C34D04A48A8
:1001200000684042064435006868002807D4502023
:1001300080F31188BFF34F8FBFF36F8FFEE72868FE
:10014000002807D0502080F31188BFF34F8FBFF3F2
:100150006F8FFEE76868002816D52868002813D13D
:10016000686820F00040686000F0EDF937490A68DF
:10017000686882180A60280000F034F8374801687F
:10018000491C016000F0E5F970BD70B45FF496326F
:100190003348010011F0070F04D0C91DC908C90078
:1001A000521A82180B002A48036000244460D418B5
:1001B00025480068241AE408E400224D2C60002041
:1001C0002E68706000202E6830601800261A466085
:1001D0002D68056045681F4E356045681B4E3560CB
:1001E00070BC704730B41A4A1168814201D212685B
:1001F000FAE7140051682144814204D153684168F0
:10020000CB18536010000300416819441568A942D7
:1002100010D10C4914680D68AC4208D044681168CC
:1002200049680C19446011680968016004E00968B4
:10023000016001E011680160824200D0106030BCB2
:1002400070470000102C0120F8220008142C012017
:10025000082C0120182C01201C2C0120202C01200E
:10026000080000202DE9F14F84B00E0017009846D9
:10027000380080B28000FFF7C3FE0500002D15D0C6
:100280005820FFF7BDFE0400002C0BD05FF058098A
:100290005FF0000AA34652464946584600F040FD2A
:1002A000256304E02800FFF735FF00E00024002C60
:1002B00012D00020039002940F9801900E980090A5
:1002C00043463A0092B23100049800F00AF8200048
:1002D00000F077F8012001E05FF0FF3005B0BDE8E5
:1002E000F08F2DE9F94F81B00C0016000C9F0D9D89
:1002F000DDF83880B00000905FF0A50BD8F830A092
:100300005A460099504600F00BFDD8F8300000EB3B
:100310008600B0F1040A5FEADA0A5FEACA0A1AF054
:100320000700002807D0502080F31188BFF34F8FBB
:10033000BFF36F8FFEE7002C14D000208146B9F187
:100340000A0F0CD214F8090008EB090181F83400F7
:1003500014F80900002802D019F10109EFE7002084
:1003600088F83D00052F07D3502080F31188BFF394
:100370004F8FBFF36F8FFEE7052F01D304200700D7
:10038000C8F82C70C8F8487018F1040000F00AFD95
:1003900018F1180000F006FDC8F81080D7F105002C
:1003A000C8F81800C8F82480029A0199504600F055
:1003B0002BFDC8F80000002D01D0C5F80080BDE875
:1003C000F78F70B5040000F0AFFDDFF8D0120868B9
:1003D000401C0860DFF8C8522868002806D12C604D
:1003E000086801280DD100F099FB0AE0DFF8B4029B
:1003F0000068002805D1E06A2968C96A884200D3EC
:100400002C60DFF8A4020168491C016000682064C8
:10041000DFF898120A680123E06A83401A430A60F1
:100420001420DFF88C12E26A42430A445668A66040
:10043000B268E260221DB3685A60221DB260E26AAF
:1004400042430A446261E26A4243E36A00FB03F00A
:100450000858401C885000F081FDDFF84802006811
:1004600000280DD02868C06AE16A884208D25FF08F
:100470008050DFF874140860BFF34F8FBFF36F8FA5
:1004800070BD38B505000024002D15D0DFF85404E8
:100490000068002807D0502080F31188BFF34F8FE9
:1004A000BFF36F8FFEE700F04EF80021280000F048
:1004B000CFFB00F04EF80400002C08D15FF0805014
:1004C000DFF824140860BFF34F8FBFF36F8F31BD87
:1004D0001CB5DFF83807019000200090002382222D
:1004E000DFF82C170FF20D60FFF7BCFE0400012CA3
:1004F00002D100F085FD0400012C15D1502080F3BD
:100500001188BFF34F8FBFF36F8F5FF0FF30DFF8BD
:10051000041708600120634908600020DFF8CC134D
:10052000086000F09AFC0AE014F1010F07D1502096
:1005300080F31188BFF34F8FBFF36F8FFEE7DFF8B3
:10054000D806006813BDDFF89C030168491C0160F0
:100550007047F8B500250026DFF88843206800289A
:1005600007D1502080F31188BFF34F8FBFF36F8FF7
:10057000FEE700F0D9FC2068401E206020680028BB
:1005800040F0848045480068002800F07F80DFF854
:1005900058160868002853D0C868C0680500A86AC3
:1005A000296AEA699160E9692A6A5160416815F12E
:1005B0001802914201D1296A41600021A9620168B3
:1005C000491E01606869E968AA689160A968EA68DB
:1005D000516041682A1D914201D1E96841600021C2
:1005E00069610168491E016030490A680123E86AAF
:1005F00083401A430A602E481421EA6A4A4302449F
:100600005268AA609368EB602B1D946863602B1D91
:100610009360EB6A4B4303446B61EB6A4B43EC6AB8
:1006200001FB04F14158491CC150E86A1C490968A2
:10063000C96A8842ABD30120DFF874150860A6E7C9
:10064000002D01D000F0BFFADFF8D0753C68002C17
:100650000CD000F02FF8002803D00120DFF850154F
:100660000860641E002CF4D100203860DFF84005DB
:10067000006800280AD0012006005FF08050DFF8F3
:1006800068120860BFF34F8FBFF36F8F00F066FCF6
:100690003000F2BDDFF8540200687047582D012089
:1006A000802C0120642D0120742D0120602D01205B
:1006B000842C01202DE9F04100278A480068002899
:1006C00040F0B48089480468641C0460002C1AD18E
:1006D0009D4908680068002807D0502080F31188E1
:1006E000BFF34F8FBFF36F8FFEE7D1F800809748BD
:1006F00002680A60C0F80080DFF824050168491C20
:10070000016000F060FADFF80C150868844278D3C5
:100710008D4A10680068002803D15FF0FF30086040
:100720006FE01068C068C068050068680600B442E1
:1007300001D20E6065E06869EA68AB689A60AA68F1
:10074000EB685A6042682B1D9A4201D1EA68426008
:1007500000226A610268521E0260A86A002812D054
:10076000A86A2A6AEB699A60EA692B6A5A60426849
:1007700015F118039A4201D12A6A42600022AA6246
:100780000268521E0260DFF89C2413685FF0010CBF
:10079000E86A1CFA00FC5CEA03031360DFF88804D3
:1007A0001422EB6A534303445B68AB60D3F808C080
:1007B000C5F80CC015F1040CD3F808E0CEF804C05D
:1007C00015F1040CC3F808C0D5F82CC002FB0CFCD2
:1007D0008444C5F814C0D5F82CC002FB0CFCD5F835
:1007E0002CE002FB0EF28258521C40F80C20DFF87D
:1007F0003C040068C06AEA6A904289D2012007007E
:1008000086E7DFF828040068DFF81C14C26A1420A9
:1008100042438858022801D301200700DFF89003E3
:100820000068002807D00120070004E0DFF8EC038F
:100830000168491C01603800BDE8F0812948006862
:10084000002804D00120DFF8681308602EE00020A3
:10085000DFF85C130860DFF8CC030068B0FA80F1C1
:10086000D1F11F011422DFF8C03302FB01F0185848
:10087000002807D1502080F31188BFF34F8FBFF3BA
:100880006F8FFEE702FB01F203EB02004268526841
:100890004260426810F108039A4202D142685268ED
:1008A00042604068C068DFF884231060704738B544
:1008B00004000D00002C07D1502080F31188BFF3F5
:1008C0004F8FBFF36F8FFEE7DFF86003006810F112
:1008D0001801200000F069FA0121280000F0B8F9A1
:1008E00031BD0000802D012004ED00E05C2D0120D1
:1008F00070B504000E001500002C07D1502080F3C5
:100900001188BFF34F8FBFF36F8FFEE76068DFF88A
:100910001C130A68D06182680B681A620A68183270
:1009200083685A600A681832826009688C6221689C
:10093000491C2160002D02D05FF0FF300600290025
:10094000300000F085F970BD102D0120142D01201C
:1009500070B40200D068C168002907D1502080F32C
:100960001188BFF34F8FBFF36F8FFEE7886A0B6A62
:10097000CC69A360CB690C6A6360436811F1180409
:10098000A34201D10B6A436000238B6203685B1EA4
:100990000360DFF89C020068002835D14869CB6805
:1009A0008C68A3608B68CC68636043680C1DA342AD
:1009B00001D1CB68436000234B6103685B1E036079
:1009C000DFF860321C680125C86A85402C431C6032
:1009D000DFF854021423CC6A5C43044464688C60DE
:1009E000A568CD600D1DA66875600D1DA560CD6A5A
:1009F0005D4305444D61CD6A5D43CE6A03FB06F35A
:100A0000C3585B1C435110E0DFF8DC315868C86103
:100A100084680C6211F1180485686C6011F1180487
:100A200084608B621C68641C1C60DFF80002006834
:100A3000C06ACB6A984204D2012001235C4C236037
:100A400000E0002070BC7047DFF8D4110968016035
:100A5000DFF8E0110968416070472DE9F0410400BA
:100A60000D00002C07D1502080F31188BFF34F8F69
:100A7000BFF36F8FFEE7002D07D1502080F3118860
:100A8000BFF34F8FBFF36F8FFEE700F04DFADFF833
:100A9000A40106686768F71B286810F1010F02D1EE
:100AA0005FF000081DE0DFF87801006821688842E7
:100AB00007D06068864204D35FF0010800202860F8
:100AC0000FE02868874208D22868C01B28602000F1
:100AD000FFF7BAFF5FF0000803E0002028605FF036
:100AE000010800F03BFA4046BDE8F08101203049A2
:100AF0000860704710B5040000F03AF8DFF82801EC
:100B000000680228F8D35FF0805003490860BFF303
:100B10004F8FBFF36F8FEFE704ED00E070B5002457
:100B2000052C09D2DFF80001142101FB04F108446F
:100B300000F029F9641CF3E7DFF8FC50280000F00E
:100B400022F9DFF8F860300000F01DF9264800F0C7
:100B50001AF9DFF8EC0000F016F9DFF8E80000F011
:100B600012F9DFF8E4000560DFF88C01066070BD63
:100B700038B5DFF8D8502868002817D000F0D4F92D
:100B8000DFF8BC00C068C0680400201D00F028F930
:100B9000DFF868010168491E01602868401E28606E
:100BA00000F0DCF9200000F005F8E2E731BD0000BC
:100BB0006C2D012010B50400206BFFF7ABFA20006C
:100BC000FFF7A8FA10BDDFF8801008680068002859
:100BD00004D15FF0FF300F49086004E00868C06886
:100BE00000680C4908607047182D0120DFF81401D7
:100BF0000068002801D1012007E0DFF80C0100683F
:100C0000002801D1022000E0002070477C2D012047
:100C100018230008782D012004000020682D0120F1
:100C2000702D0120602D0120842C0120802C0120BA
:100C3000802D01205C2D0120E82C0120FC2C0120BE
:100C40002C2D0120442D0120102D0120402D0120AC
:100C50002DE9F04105000C002D480768DFF8A08061
:100C6000D8F80000001D00F0BBF8002808D1D8F823
:100C7000000026490A680123C06A83409A430A603B
:100C800015F1010F1AD1002C18D022484168D8F86C
:100C9000002091608A68D8F80030DA60D8F8002027
:100CA000121D8B685A60D8F80020121D8A60D8F88F
:100CB000002050610268521C02601AE0E819060028
:100CC000D8F800004660BE4207D2D8F80000011DE7
:100CD0000948006800F069F80BE0D8F80000011D31
:100CE0000D48006800F061F80C4801688E4200D29F
:100CF0000660BDE8F0810000142D0120582D012070
:100D0000802C0120642D0120802D0120602D0120E8
:100D10005C2D0120442D0120102D0120782D012073
:100D200062F30F2262F31F42401810F0030308D051
:100D3000C91A1FD3DB0748BF00F8012D28BF20F8D0
:100D4000022D130030B414461546103928BF20E98F
:100D50003C00FAD8490728BF20E90C0048BF40F8FA
:100D6000042D890028BF20F8022D48BF00F8012D6E
:100D700030BC7047C91818BF00F8012DCB0728BF39
:100D800000F8012D704710F1080141605FF0FF315C
:100D9000816010F10801C16010F1080101610021BA
:100DA0000160704700210161704710B40B6813F1B6
:100DB000010F01D1026907E010F1080254682468AC
:100DC000A34201D35268F9E754684C604C68A160B3
:100DD0008A60516008610468641C046010BC70473C
:100DE000010008698A684B689A604A688B685A6093
:100DF00042688A4201D18A68426000220A61026820
:100E0000521E026000687047001F5FF0807303602D
:100E1000001F4B085B000360001F0FF21503036007
:100E200014380260001F7FF002030360203870470F
:100E30005F48006810F1010F07D0502080F311883F
:100E4000BFF34F8FBFF36F8FFEE7502080F3118801
:100E5000BFF34F8FBFF36F8FFEE7E0B555480168D2
:100E6000554A914207D1502080F31188BFF34F8F2C
:100E7000BFF36F8FFEE700685049884207D15020CA
:100E800080F31188BFF34F8FBFF36F8FFEE74C489D
:100E900001780191FF21017001788DF800109DF813
:100EA000001011F05001474A1170474907220A60AB
:100EB0009DF80020120608D50A68521E0A609DF8A7
:100EC000002052008DF80020F2E70A68D2F10702F4
:100ED000042A07D0502181F31188BFF34F8FBFF34D
:100EE0006F8FFEE70A6812020A600A6812F4E06275
:100EF0000A60019901703548016851F47001016080
:100F0000016851F07041016000F066F80020284946
:100F1000086000F071FA2E48016851F0404101600C
:100F200000F05AFA00200EBD502080F31188BFF364
:100F30004F8FBFF36F8F1E490A68521C0A60096801
:100F400001290AD123490968090606D080F31188CE
:100F5000BFF34F8FBFF36F8FFEE7704714490868E8
:100F6000002807D1502080F31188BFF34F8FBFF3C3
:100F70006F8FFEE70868401E08600868002802D1ED
:100F8000002080F31188704780B5502080F31188CD
:100F9000BFF34F8FBFF36F8FFFF78CFB002803D099
:100FA0005FF080500B490860002080F3118801BD7C
:100FB0000000002000ED00E071C20F4170C20F413F
:100FC00000E400E0C02D01203C2C012020ED00E0D9
:100FD00034EF00E004ED00E006480021016000214C
:100FE000054A116043F67F61044A116007210160E0
:100FF000704700BF10E000E018E000E014E000E0FF
:101000001CB5002400F080F9DFF8440300680028D4
:101010000ED0DFF8400301900220009000234FF42F
:101020008272DFF834130FF28900FFF71BF9040016
:10103000002C07D1502080F31188BFF34F8FBFF3EE
:101040006F8FFEE7200016BD70B504000D0016007E
:101050002B003200A1694919200000F093F8002804
:1010600005D0A06945192000216A8847F0E770BDC6
:1010700070B504000D00B9480068C068C668301D2E
:10108000FFF7AEFE96F82800400705D52A0021009C
:101090003000FFF7D9FF05E096F8280010F0FE00B9
:1010A00086F828003000316A884770BD00000000D3
:1010B00038B50400684600F03FF8050000992800A4
:1010C00000F003F800F086F8F4E77CB505000C00AA
:1010D000FFF739FA684600F042F806000098002849
:1010E00027D1002C08D1AE4206D3FFF732FA3100E7
:1010F0002800FFF7BDFF1EE0002C07D098480068CD
:101100000068002801D1012400E000242200A91B6E
:101110008F48006800F07CFBFFF71BFA00280AD11B
:101120005FF080508F490860BFF34F8FBFF36F8F20
:1011300001E0FFF70EFA73BD0100884A10680068ED
:10114000002801D1012000E0002008600868002884
:1011500003D11068C068006800E00020704770B5D7
:101160000400FFF797FA05007F4E3068854204D2ED
:1011700000F0B4F80120206001E00020206035601C
:10118000280070BD2DE9F04104000D0016001F007D
:101190005FF0000865602461AE420CD3F01BA169CA
:1011A000884202D30120804611E0211D6C4800686E
:1011B000FFF7FBFD0BE0BE4204D2BD4202D301208B
:1011C000804604E0211D65480068FFF7EEFD4046BB
:1011D000BDE8F08138B584B0002269465C480068FB
:1011E00000F0CEF9002877D000980028F4D40298B7
:1011F00004006069002802D0201DFFF7F1FD03A85C
:10120000FFF7ADFF0500009801280DD063D3032838
:1012100030D009D305284FD033D3072804D003D3C7
:1012200009282ED026D356E094F8280050F001006B
:1012300084F82800019B2A000199A0694118200028
:10124000FFF7A0FF002814D094F82800400707D526
:101250002A000199A06941182000FFF7F5FE05E07A
:1012600094F8280010F0FE0084F828002000216A7D
:101270008847B1E794F8280010F0FE0084F82800B1
:10128000AAE794F8280050F0010084F8280001989B
:10129000A061A069002807D1502080F31188BFF316
:1012A0004F8FBFF36F8FFEE72B002A00A16949190A
:1012B0002000FFF767FF8FE794F82800800703D42A
:1012C0002000FEF727FF05E094F8280010F0FE004C
:1012D00084F8280080E77FE705B030BD10B51F49CE
:1012E00008680068002809D00868C0680068040021
:1012F0005FF0FF312000FFF7BBFEF0E70868184AF7
:1013000013680B60106010BD70B5FFF70DFE104C38
:101310002068002818D1154D2800FFF734FD144E21
:101320003000FFF730FD0D4805600D4806600022D3
:101330000C210A2000F0D3F820602068002803D098
:101340000C49206800F034FAFFF708FE70BD000079
:10135000B42D0120B82D012020230008AC2D012040
:10136000B02D012004ED00E0BC2D0120842D0120D2
:10137000982D012028230008EFF30980BFF36F8F19
:10138000214B1A6820E9F04F106009B44FF050006B
:1013900080F31188BFF34F8FBFF36F8FFFF74EFAC3
:1013A0004FF0000080F3118809BC19680868B0E8A4
:1013B000F04F80F30988BFF36F8F7047124B1968A5
:1013C0000868B0E8F04F80F30988BFF36F8F4FF0E3
:1013D000000080F3118870470C480068006880F3B3
:1013E00008884FF0000080F3148862B661B6BFF33E
:1013F0004F8FBFF36F8F00DFDFF81400016841F4F7
:101400007001016070470000802C012008ED00E0B1
:1014100088ED00E0F8B507000D0001263C00002C27
:1014200007D1502080F31188BFF34F8FBFF36F8F28
:10143000FEE7002C45D0E06B002842D05FF0FF3083
:10144000E16BB0FBF1F0216C88423AD3FFF76CFD01
:101450002168E26B206C424301EB0200A060002097
:10146000A063206860602168E26B521E206C4243DA
:1014700001EB0200E0605FF0FF3084F8440084F884
:101480004500002D12D12069002817D014F110005A
:10149000FFF75EFA002811D05FF08050DFF84C12A1
:1014A0000860BFF34F8FBFF36F8F07E014F1100098
:1014B000FFF769FC14F12400FFF765FCFFF74EFD10
:1014C00001E000200600002E07D1502080F3118893
:1014D000BFF34F8FBFF36F8FFEE73000F2BD2DE9F2
:1014E000F8430500884691460024002D20D05FF087
:1014F000FF30B0FBF5F040451AD308FB05F010F1C2
:10150000500F15D208FB05F0060016F15000FEF74B
:1015100077FD0400002C15D0200050300700009407
:101520004B46DBB23A004146280000F00EF809E0D5
:10153000002C07D1502080F31188BFF34F8FBFF3E9
:101540006F8FFEE72000BDE8F2832DE9F041050032
:101550000C0016001F00DDF81880002C02D1C8F81E
:10156000008001E0C8F80060C8F83C50C8F840406E
:1015700001214046FFF74EFF88F84C70BDE8F0812E
:101580002DE9F64182B080460E0000244746002F28
:1015900007D1502080F31188BFF34F8FBFF36F8FB7
:1015A000FEE7002E02D1386C002801D1012000E0B6
:1015B0000020C0B2002807D1502080F31188BFF36B
:1015C0004F8FBFF36F8FFEE7FFF710FB002802D1AC
:1015D0000398002801D1012000E00020C0B20028BB
:1015E00007D1502080F31188BFF34F8FBFF36F8F67
:1015F000FEE7FFF799FCBD6B002D1BD031003800D2
:1016000000F076F8681EB863386900280ED017F12C
:101610001000FFF79DF9002808D05FF08050DFF838
:10162000CC100860BFF34F8FBFF36F8FFFF796FCAE
:10163000012057E00398002803D1FFF78FFC00201A
:1016400050E0002C04D16846FFF7FEF901200400A9
:10165000FFF784FCFEF777FFFFF766FC97F944007D
:1016600010F1010F02D1002087F8440097F94500DE
:1016700010F1010F02D1002087F84500FFF76EFC42
:1016800003A96846FFF7E9F9002820D1380000F0E7
:1016900081F8002815D0039917F12400FFF707F906
:1016A000380000F040F8FEF754FF0028A1D15FF0A9
:1016B0008050DFF838100860BFF34F8FBFF36F8F93
:1016C00097E7380000F02FF8FEF743FF91E7380066
:1016D00000F029F8FEF73DFF380000F05BF8002825
:1016E00087D0002004B0BDE8F081000004ED00E0E8
:1016F0002DE9F04104000D00206C002811D0E068B5
:10170000216C0844E060E068A168884201D3206849
:10171000E060266CE768A84632003900404600F0D9
:101720009DF8BDE8F081F8B50400FFF7FDFB94F9E2
:101730004550280040B201280CDB606A002809D01F
:1017400014F12400FFF704F9002801D0FFF7CEF9C7
:101750006D1EEEE75FF0FF3684F84560FFF7FEFB95
:10176000FFF7E2FB94F94470380040B201280CDB2B
:101770002069002809D014F11000FFF7E9F80028CB
:1017800001D0FFF7B3F97F1EEEE784F84460FFF75E
:10179000E5FBF1BD38B50400FFF7C6FBA06B0028E0
:1017A00001D1012500E00025FFF7D8FB280032BD5C
:1017B00030B40022002807D1502383F31188BFF3EF
:1017C0004F8FBFF36F8FFEE7002918D000231C0056
:1017D000082C14D20D4D05EBC4035B68984203D16D
:1017E00005EBC4031A000AE0002A06D155F834308C
:1017F000002B02D105EBC4031A00641CE8E7002AA1
:1018000001D01160506030BC70470000402C0120B6
:10181000F8B504000D0016002700FFF785FB97F9C7
:10182000440010F1010F02D1002087F8440097F91D
:10183000450010F1010F02D1002087F84500FFF7A5
:101840008DFBB86B002805D13200290017F1240068
:10185000FFF74EF83800FFF766FFF1BD62B38B0764
:1018600008D0521E11F8013B00F8013B00F0248023
:101870008B07F6D1830740F0208000BF103A07D3D2
:1018800030B4B1E83810103AA0E83810F9D230BCC2
:10189000530724BFB1E80810A0E8081044BF51F86E
:1018A000043B40F8043BD20724BF31F8022B20F858
:1018B000022B44BF0B7803707047121F17D35B00D5
:1018C00009D151F8043B20F8023B1B0C121F20F8F1
:1018D000023BF6D20BE051F8043B00F8013B1B0A37
:1018E00020F8023B1B0C121F00F8013BF3D238BF5B
:1018F000121D521E24BF11F8013B00F8013BF8D81D
:101900007047000038B584B000F047F803A8019094
:1019100002200090304BC82230490FF25100FEF7F0
:10192000A1FC0500012D07D0502080F31188BFF3E2
:101930004F8FBFF36F8FFEE702A801900220009047
:101940000023C82226490FF23D00FEF78BFC04005D
:10195000012C07D0502080F31188BFF34F8FBFF3C5
:101960006F8FFEE7FEF7B4FDFEE7000010B5040040
:101970000C211C4800F0DAF94FF47A70FEF781FD73
:10198000F6E7000010B504000D21164800F0CEF96E
:101990004FF4FA60FEF775FDF6E710B51248114CEA
:1019A00004600C210171012141710021817100212C
:1019B00001720021C17100F082F80C4804600D2111
:1019C0000171012141710021817100210172002109
:1019D000C17100F074F810BD04230008FC22000857
:1019E00010230008000C0240242C0120302C012080
:1019F0000A00D2B2012A61D1DFF83C23904206D11D
:101A0000DFF83823136853F00103136056E0DFF862
:101A10003023904206D1DFF82423136853F00203E9
:101A200013604BE0DFF81C23904206D1DFF80C2353
:101A3000136853F00403136040E0DFF80C23904276
:101A400006D1DFF8F822136853F00803136035E07D
:101A5000DFF8F822904206D1DFF8E022136853F055
:101A6000100313602AE0DFF8E822904206D1DFF885
:101A7000CC22136853F0200313601FE0DFF8D42258
:101A8000904206D1DFF8B422136853F0400313608C
:101A900014E0DFF8C422904206D1DFF8A0221368D8
:101AA00053F08003136009E0DFF8B022904205D1C3
:101AB000DFF88822136853F4807313607047F8B519
:101AC0000400002501212068FFF792FF60790428B7
:101AD00015DA61792079C0B2400081400D0020689C
:101AE000016803222079C0B24000824091432068FF
:101AF000016020680068284321680860A9E06079D7
:101B0000042813D10121DFF85802026894F9043047
:101B100011FA03F31A430260DFF84822136894F9BC
:101B20000400814033EA010111602BE0607905284F
:101B300013D1DFF830020121026894F9043011FA60
:101B400003F31A430260DFF81822136894F90400C3
:101B5000814033EA0101116014E06079062811D157
:101B6000DFF800020121026894F9043011FA03F34E
:101B70001A430260DFF8E821136894F904008140F9
:101B8000194311602079042190FBF1F1207904239D
:101B900090FBF3F203FB12022068DFF89C319842BD
:101BA00001D1002338E02068DFF89431984201D158
:101BB000012331E02068DFF88C31984201D1022303
:101BC0002AE02068DFF88031984201D1032323E026
:101BD0002068DFF87831984201D104231CE02068A6
:101BE000DFF86C31984201D1052315E02068DFF859
:101BF0006431984201D106230EE02068DFF85831A5
:101C0000984201D1072307E02068DFF8503198425D
:101C100001D1082300E00023DFF84C01066856F4E8
:101C2000804606601E00F6B2D2B290008640DFF811
:101C30003C010F00FFB240F82760DFF834613768DD
:101C40005FF0010C94F904001CFA00FC5CEA070741
:101C50003760A0792179C9B2490010FA01F1032255
:101C6000206880682379DBB25B0012FA03F39843A3
:101C70002368986020688068084323689860E0794A
:101C80002379DBB25B0010FA03F32068C668207981
:101C9000C0B24000824036EA02022068C26020687A
:101CA000C06818432268D060207A94F9042010FAA2
:101CB00002F220684668012794F904008740BE4379
:101CC000206846602068406810432668706060792C
:101CD00002282AD12079082190FBF1F120790825EA
:101CE00090FBF5F305FB130320680D00EDB200EB4C
:101CF000850520680E00F6B200EB8600066A0F2705
:101D0000DBB298008740BE432E6220680D00EDB222
:101D100000EB85052068C9B200EB8100016A667A94
:101D2000DBB29800864031432962F1BD426901234C
:101D30008B405A40426170470000024030380240F8
:101D40000004024000080240000C02400010024063
:101D50000014024000180240001C02400020024013
:101D60000C3C0140083C0140443802400838014026
:101D7000003C0140FFF7FEBFFFF7FEBFFFF7FEBFCD
:101D8000FFF7FEBFFFF7FEBFFFF7FEBFFFF7FEBF87
:101D9000FFF7FEBFFFF7FEBFFFF7FEBFFFF7FEBF77
:101DA000FFF7FEBFFFF7FEBFFFF7FEBFFFF7FEBF67
:101DB000FFF7FEBFFFF7FEBFFFF7FEBFFFF7FEBF57
:101DC000FFF7FEBFFFF7FEBFFFF7FEBFFFF7FEBF47
:101DD000FFF7FEBFFFF7FEBFFFF7FEBFFFF7FEBF37
:101DE000FFF7FEBFFFF7FEBFFFF7FEBFFFF7FEBF27
:101DF000FFF7FEBFFFF7FEBFFFF7FEBFFFF7FEBF17
:101E0000FFF7FEBFFFF7FEBFFFF7FEBFFFF7FEBF06
:101E1000FFF7FEBFFFF7FEBFFFF7FEBFFFF7FEBFF6
:101E2000FFF7FEBFFFF7FEBFFFF7FEBFFFF7FEBFE6
:101E3000FFF7FEBFFFF7FEBFFFF7FEBFFFF7FEBFD6
:101E4000FFF7FEBFFFF7FEBFFFF7FEBFFFF7FEBFC6
:101E5000FFF7FEBFFFF7FEBFFFF7FEBFFFF7FEBFB6
:101E6000FFF7FEBFFFF7FEBFFFF7FEBFFFF7FEBFA6
:101E7000FFF7FEBFFFF7FEBFFFF7FEBFFFF7FEBF96
:101E8000FFF7FEBFFFF7FEBFFFF7FEBFFFF7FEBF86
:101E9000FFF7FEBFFFF7FEBFFFF7FEBFFFF7FEBF76
:101EA000FFF7FEBFFFF7FEBFFFF7FEBFFFF7FEBF66
:101EB000FFF7FEBFFFF7FEBFFFF7FEBFFFF7FEBF56
:101EC000FFF7FEBFFFF7FEBFFFF7FEBFFFF7FEBF46
:101ED000FFF7FEBFFFF7FEBF00000000000000009C
:101EE00000000000000000000000000000000000F2
:101EF00000000000000000000000000000000000E2
:101F000000000000000000000000000000000000D1
:101F100000000000000000000000000000000000C1
:101F200000000000000000000000000000000000B1
:101F300000000000000000000000000000000000A1
:101F40000000000000000000000000000000000091
:101F50000000000000000000000000000000000081
:101F60000000000000000000000000000000000071
:101F70000000000000000000000000000000000061
:101F80000000000000000000000000000000000051
:101F90000000000000000000000000000000000041
:101FA0000000000000000000000000000000000031
:101FB0000000000000000000000000000000000021
:101FC0000000000000000000000000000000000011
:101FD0000000000000000000000000000000000001
:101FE00000000000000000000000000000000000F1
:101FF00000000000000000000000000000000000E1
:10200000E0A50120A9210008751D0008791D000820
:102010007D1D0008811D0008851D000800000000CE
:10202000000000000000000000000000BD130008D8
:10203000891D00080000000079130008890F0008BE
:102040008D1D0008911D0008951D0008991D0008B0
:10205000000000009D1D0008A11D0008A51D00082E
:10206000A91D0008AD1D0008B11D0008B51D000820
:10207000B91D0008BD1D0008C11D0008C51D0008D0
:10208000C91D0008CD1D0008D11D0008D51D000880
:10209000D91D0008DD1D0008E11D0008E51D000830
:1020A000E91D0008ED1D0008F11D0008F51D0008E0
:1020B000F91D0008FD1D0008011E0008051E00088E
:1020C000091E00080D1E0008111E0008151E00083C
:1020D000191E00081D1E0008211E0008251E0008EC
:1020E000291E00082D1E0008311E0008351E00089C
:1020F000391E00083D1E0008411E0008451E00084C
:10210000491E00084D1E0008511E0008551E0008FB
:10211000591E00085D1E0008611E0008651E0008AB
:10212000691E00086D1E0008711E0008751E00085B
:10213000791E00087D1E0008811E0008851E00080B
:10214000891E00088D1E0008911E0008951E0008BB
:10215000991E00089D1E0008A11E0008A51E00086B
:10216000A91E0008AD1E0008B11E0008B51E00081B
:10217000B91E0008BD1E0008C11E0008C51E0008CB
:10218000CD1E0008C91E000800000000000000006D
:10219000000000000000000000000000000000003F
:1021A000D11E0008D51E000800F00EF800F027F838
:1021B00000F029F800F02BF800F037F800F04BF8A9
:1021C00062B6FFF79FFB01294FF000004FF00001BE
:1021D0004FF000024FF000034FF000044FF00005F5
:1021E0004FF000064FF000074FF000084FF00009D5
:1021F0004FF0000A4FF0000B4FF0000CF74620485C
:1022000020490160F746204880F30888F7461F48B8
:10221000002809D01E491F4A521A013A04DD002045
:10222000002309C1083AFCDAF7461B481B4E351A51
:102230000C350C3D002D0DD00168426883680C30D0
:102240009C1A002CF5D014680C60491C521C9A4250
:10225000EFD0F8E7F7461248124E351A0835083D18
:10226000002D0BD0016842680830541A002CF6D0BB
:1022700000240C60491C8A42F1D0F9E7F7460000BF
:1022800008ED00E000B00120E0A501200100000001
:102290000000002000F40120B0220008E022000825
:1022A000E0220008F8220008000000000000000002
:1022B00000B0012000200008A82100080000002034
:1022C0003023000838230008A8B101203823000873
:1022D00038230008F4CC01203823000838230008F4
:1022E00008000020C12D0120A8B10120A8B10120C3
:1022F000F4CC0120F4CC0120080000005461736B81
:102300002D3100004920616D205461736B2D310027
:102310005461736B2D32000049444C4500000000AD
:10232000546D722053766300546D725100000000AA
:08233000AAAAAAAA04000000F9
:04000005080021A925
:00000001FF
