:020000040800F2
:100000002DE9F0410400002500F078FADFF81482B1
:10001000D8F80000002801D100F0AAF8002C0DD07B
:1000200081480168083114F00700081A5FF0FF31B9
:10003000091AA14201D3041900E00024002C4CD479
:10004000002C4AD0794E3068A04246D3784801004F
:10005000076801E039003F687868A04202D238683A
:100060000028F7D1D8F80000874236D06E480A68D9
:10007000036802EB03053A680A600068400079688B
:10008000091B884214D207EB040111F00700002875
:1000900007D0502080F31188BFF34F8FBFF36F8FCD
:1000A000FEE77868001B48607C60080000F08BF871
:1000B00031687868091A31605E4831680268914297
:1000C00001D231680160786850F00040786000200B
:1000D000386059480168491C016000F015FA15F0B4
:1000E0000700002807D0502080F31188BFF34F8FFE
:1000F000BFF36F8FFEE72800BDE8F08110B5010067
:10010000002834D048480068404201EB0004606891
:10011000002807D4502080F31188BFF34F8FBFF31E
:100120006F8FFEE72068002807D0502080F31188E9
:10013000BFF34F8FBFF36F8FFEE76068002816D5BF
:100140002068002813D1606820F00040606000F053
:10015000D5F936490A68606882180A60200000F004
:1001600032F836480168491C016000F0CDF910BD35
:1001700010B45FF496323248010011F0070F04D03A
:10018000C91DC908C900521A8218294801600023F4
:100190004360521824480068121AD208D20021483D
:1001A0000260002304686360002304682360521A1D
:1001B0004A600068086048681E4A106048681B4929
:1001C000086010BC704710B4194A00E0126811684A
:1001D0008142FBD3110053681944814204D1516814
:1001E00040684118516010000100436819441368C9
:1001F000994210D10B4913680C68A34208D0436898
:1002000011684968CB18436011680968016004E00F
:100210000968016001E011680160824200D010604D
:1002200010BC7047102C0120F8220008142C01206B
:10023000082C0120182C01201C2C0120202C01202E
:10024000080000202DE9FF4706000F009046994660
:10025000404680B28000FFF7D3FE0500002D11D08C
:100260005820FFF7CDFE0400002C07D058210022B3
:10027000A246504600F0F4FC256304E02800FFF796
:100280003DFF00E00024002C13D0002003900294D6
:100290000D9801900C9800904B461FFA88F8424642
:1002A0003900300000F00AF8200000F068F8012062
:1002B00001E05FF0FF3004B0BDE8F0872DE9F843BE
:1002C00005000C00170098460A9EB900A522D6F832
:1002D0003090484600F0C4FC306B00EB8700071FED
:1002E000FF08FF0017F00700002807D0502080F318
:1002F0001188BFF34F8FBFF36F8FFEE7002C0FD035
:10030000002100E0491C0A2907D2605C06EB0102CB
:1003100082F83400605C0028F4D1002086F83D00AB
:10032000DDF82090B9F1050F07D3502080F3118834
:10033000BFF34F8FBFF36F8FFEE7B9F1050F01D306
:100340005FF00409099CC6F82C90C6F84890301D4F
:1003500000F0C8FC16F1180000F0C4FC3661D9F1B9
:100360000509C6F81890766242462900380000F068
:10037000EBFC3060002C00D02660BDE8F18370B546
:10038000040000F071FDDFF8C4120868401C08602A
:10039000DFF8BC522868002806D12C6008680128C4
:1003A0000DD100F06AFB0AE0DFF8FC0300680028CA
:1003B00005D1E06A2968C96A884200D32C60DFF859
:1003C000EC030168491C016000682064DFF8E01359
:1003D0000A680123E06A83401A430A601420DFF8A8
:1003E000D413E26A42430A445268A2609368E3600D
:1003F000231D96687360231D9360E26A42430A449A
:100400006261E26A4243E36A00FB03F00858401C61
:10041000885000F043FDDFF89003006800280DD0FD
:100420002868C06AE16A884208D25FF08050DFF82D
:1004300080140860BFF34F8FBFF36F8F70BD10B58E
:1004400004000020002C14D0DFF80C040068002801
:1004500007D0502080F31188BFF34F8FBFF36F8F09
:10046000FEE700F04BF80021200000F097FB00F0C1
:100470004BF8002808D15FF08050DFF83414086092
:10048000BFF34F8FBFF36F8F10BDE0B5DFF8E0060D
:1004900001900020009000238222DFF8D8160FF28E
:1004A000B950FFF7CFFE012801D100F049FD012826
:1004B00019D1502080F31188BFF34F8FBFF36F8F96
:1004C0005FF0FF30DFF8B01608600120DFF8D812C7
:1004D00008600020DFF8DC13086000F05EFCDFF845
:1004E0009C06006807BD10F1010FF8D1502080F381
:1004F0001188BFF34F8FBFF36F8FFEE7DFF858030C
:100500000168491C0160704770B500240025DFF8C0
:1005100048633068002807D1502080F31188BFF36A
:100520004F8FBFF36F8FFEE700F09EFC3068401ED8
:1005300030603068002840F081804448006800281E
:1005400052D17BE0C868C468A06A216AE269916000
:10055000E169226A5160416814F11802914201D1A7
:10056000216A41600021A1620168491E0160606941
:10057000E168A2689160A168E26851604168221D4B
:10058000914201D1E1684160002161610168491E29
:10059000016087490A680123E06A83401A430A60C0
:1005A00084481421E26A4A4302445268A260936874
:1005B000E360231D96687360231D9360E26A4A43DB
:1005C00002446261E26A4A43E36A01FB03F1415873
:1005D000491C8150E06A1E490968C96A884203D3F0
:1005E0000120DFF888150860DFF87C15086800280E
:1005F000A8D1002C01D000F094FADFF884653468AB
:10060000002C0CD000F026F8002803D00120DFF8E1
:100610005C150860641E002CF4D100203060DFF807
:100620004C050068002809D001255FF08050DFF8F4
:1006300080120860BFF34F8FBFF36F8F00F02EFC66
:10064000280070BDDFF86C0200687047582D01204B
:10065000802C0120F8B500257F480068002840F074
:100660009C8094480468641C0460002C1AD1DFF854
:10067000401308680068002807D0502080F31188D4
:10068000BFF34F8FBFF36F8FFEE70868DFF82423B7
:1006900013680B601060DFF8F0040168491C01600A
:1006A00000F03FFADFF8D014086884425FD352E0CC
:1006B0005069D3689668B3609368D668736043687E
:1006C000161DB34201D1D368436000235361036810
:1006D0005B1E0360906A002812D0906A136AD66984
:1006E000B360D369166A7360436812F11806B342A7
:1006F00001D1136A43600023936203685B1E0360A9
:100700002B4B1E680127D06A87403E431E60294854
:100710001423D66A5E43064476689660B768D7604D
:10072000171DD6F808C0CCF80470171DB760D66A3C
:100730005E4306445661D66A5E43D76A03FB07F3FD
:10074000C3585B1C8351DFF83C040068C06AD26A5E
:10075000904200D20125964A10680068002818D0FF
:100760001068C068C26850688442A1D20860DFF88F
:10077000140400680F49C26A1420424388580228B2
:1007800000D30125DFF8E403006800280AD0012522
:1007900008E05FF0FF300860E9E7DFF8E403016894
:1007A000491C01602800F2BD642D0120742D012038
:1007B000602D0120842C012027480068002804D0E7
:1007C0000120DFF8A81308602DE00020DFF89C135B
:1007D0000860DFF8B8030068B0FA80F1D1F11F01BA
:1007E0001422DFF8AC3302FB01F01858002807D1BF
:1007F000502080F31188BFF34F8FBFF36F8FFEE758
:10080000514303EB0100416849684160416810F1C0
:100810000802914202D14168496841604068C0685D
:10082000DFF860130860704710B50C00002807D18E
:10083000502080F31188BFF34F8FBFF36F8FFEE717
:10084000DFF840130968183100F04FFA0121200049
:1008500000F0A4F910BD0000802D012070B50B0040
:10086000002807D1502080F31188BFF34F8FBFF3CA
:100870006F8FFEE74168DFF80C432568E9618D68FA
:1008800026683562256818358E68756025681835C4
:100890008D60216888620168491C0160002A01D0CE
:1008A0005FF0FF331100180000F078F970BD000010
:1008B00004ED00E05C2D012030B4C068C068002861
:1008C00007D1502080F31188BFF34F8FBFF36F8F94
:1008D000FEE7816A026AC3699A60C269036A5A6064
:1008E0004A6810F118039A4201D1026A4A60002254
:1008F00082620A68521E0A60DFF8981209680029AD
:1009000035D14169C26883689A608268C3685A6059
:100910004A68031D9A4201D1C2684A6000224261BE
:100920000A68521E0A60DFF8642213680124C16A53
:100930008C4023431360DFF858121423C26A5A43D1
:100940000A44526882609468C460041D95686C60B3
:10095000041D9460C26A5A430A444261C26A5A43FF
:10096000C46A03FB04F3CB585B1C8B5010E0DFF828
:10097000F8215168C1618B68036210F118038C681B
:10098000636010F118038B6082621168491C11606A
:10099000DFF8F0110968C96AC06A814205D20120F6
:1009A0000121DFF8C821116000E0002030BC704751
:1009B000102D0120142D0120DFF8CC1109680160F1
:1009C000DFF8641209684160704738B505000C0013
:1009D000002D07D1502080F31188BFF34F8FBFF354
:1009E0006F8FFEE7002C07D1502080F31188BFF3F2
:1009F0004F8FBFF36F8FFEE700F036FADFF89801F4
:100A000000686968411A226812F1010F01D10025BE
:100A10001AE0DFF8742112682B689A4206D06A68DF
:100A2000904203D30125002020600DE02068814220
:100A300007D22068411A21602800FFF7BDFF00257A
:100A400002E000202060012500F028FA280032BDD5
:100A5000012046490860704780B500F038F8DFF89B
:100A6000300100680228F8D35FF080502749086001
:100A7000BFF34F8FBFF36F8FEFE738B5002408E067
:100A8000DFF80C01142101FB04F1084400F01BF90C
:100A9000641C052CF4D3DFF89441200000F013F916
:100AA000DFF88C51280000F00EF92F4800F00BF908
:100AB000DFF8800100F007F9DFF87C0100F003F9AE
:100AC000DFF878010460DFF87801056031BD38B5E2
:100AD00015E000F0C9F9DFF85C01C068C468201DAA
:100AE00000F01EF9DFF85C010168491E016028680A
:100AF000401E286000F0D2F9200000F009F8DFF86D
:100B0000485128680028E4D131BD000004ED00E020
:100B100010B50400206BFFF7F1FA2000FFF7EEFAA2
:100B200010BDDFF8181108680068002804D15FF0D4
:100B3000FF301149086004E00868C06800680E4989
:100B400008607047DFF808010068002801D1012023
:100B500007E0DFF800010068002801D1022000E072
:100B60000020704700000000182D01206C2D01208E
:100B70007C2D012018230008782D0120040000207E
:100B8000682D0120802C0120702D0120602D012076
:100B9000842C0120802D01205C2D0120F8B5060059
:100BA0000C0021480768294D2868001D00F0B8F89E
:100BB000002807D1286828490A680123C06A8340B1
:100BC0009A430A6016F1010F15D1002C13D01A496F
:100BD00048682A68906082682B68DA602A68121D6B
:100BE00083685A602A68121D82602868416108681B
:100BF000401C086016E0F61928684660BE4206D21E
:100C00002868011D0E48006800F06FF80AE02868A7
:100C1000011D0A48006800F068F8104801688E421B
:100C200000D20660F1BD00005C2D0120E82C0120FF
:100C3000FC2C01202C2D0120442D0120102D012001
:100C4000142D0120582D0120402D0120802C012041
:100C5000642D0120802D0120602D0120782D0120A0
:100C600062F30F2262F31F42401810F0030308D012
:100C7000C91A1FD3DB0748BF00F8012D28BF20F891
:100C8000022D130030B414461546103928BF20E950
:100C90003C00FAD8490728BF20E90C0048BF40F8BB
:100CA000042D890028BF20F8022D48BF00F8012D2F
:100CB00030BC7047C91818BF00F8012DCB0728BFFA
:100CC00000F8012D704710F1080141605FF0FF311D
:100CD000816010F10801C16010F10801016100217B
:100CE0000160704700210161704710B40B6813F177
:100CF000010F01D1026907E010F1080200E052681B
:100D000054682468A342FAD253684B604B689960D8
:100D10008A60516008610168491C016010BC70471D
:100D20000169826843689A60426883685A604A68C9
:100D3000824201D182684A60002202610868401E36
:100D40000860086870470000001F5FF08073036050
:100D5000001F490849000160001F0FF215010160E2
:100D600014380260001F7FF00201016020387047D4
:100D70005F48006810F1010F07D0502080F3118800
:100D8000BFF34F8FBFF36F8FFEE7502080F31188C2
:100D9000BFF34F8FBFF36F8FFEE7E0B55548016893
:100DA000554A914207D1502080F31188BFF34F8FED
:100DB000BFF36F8FFEE700685049884207D150208B
:100DC00080F31188BFF34F8FBFF36F8FFEE74C485E
:100DD00001780191FF21017001788DF800109DF8D4
:100DE000001011F05001474A1170474907220A606C
:100DF00007E00A68521E0A609DF8002052008DF834
:100E000000209DF800201206F3D40A68D2F10702F0
:100E1000042A07D0502080F31188BFF34F8FBFF30F
:100E20006F8FFEE70A6812020A600A6812F4E06235
:100E30000A60019901703548016851F47001016040
:100E4000016851F07041016000F066F80020284907
:100E5000086000F063FA2E48016851F040410160DB
:100E600000F04CFA00200EBD502080F31188BFF333
:100E70004F8FBFF36F8F1E490A68521C0A600968C2
:100E800001290AD123490968090606D080F311888F
:100E9000BFF34F8FBFF36F8FFEE7704714490868A9
:100EA000002807D1502080F31188BFF34F8FBFF384
:100EB0006F8FFEE70868401E08600868002802D1AE
:100EC000002080F31188704780B5502080F311888E
:100ED000BFF34F8FBFF36F8FFFF7BCFB002803D02A
:100EE0005FF080500B490860002080F3118801BD3D
:100EF0000000002000ED00E071C20F4170C20F4100
:100F000000E400E0C02D01203C2C012020ED00E099
:100F100034EF00E004ED00E006480021016000210C
:100F2000054A116043F67F61044A116007210160A0
:100F3000704700BF10E000E018E000E014E000E0BF
:100F40001CB5002400F072F9DFF8280300680028BF
:100F50000ED0DFF8240301900220009000234FF40C
:100F60008272DFF818130FF28900FFF76BF90400A3
:100F7000002C07D1502080F31188BFF34F8FBFF3AF
:100F80006F8FFEE7200016BD70B504000D0016003F
:100F900004E0A06945192000216A88472B0032002F
:100FA000A1694919200000F08AF80028F1D170BD2C
:100FB00070B504000D00B2480068C068C668301DF6
:100FC000FFF7AEFE96F82800400705D52A0021005D
:100FD0003000FFF7D9FF05E096F8280010F0FE007A
:100FE00086F828003000316A884770BD0000000094
:100FF00080B5684600F03EF8009900F003F800F074
:101000007DF8F6E77CB505000C00FFF777FA684637
:1010100000F042F806000098002828D1002C08D1E2
:10102000AE4206D3FFF770FA31002800FFF7C0FF89
:101030001FE0002C07D0934800680068002801D109
:10104000012400E000242200AD1B2900894800682B
:1010500000F04CFBFFF758FA00280AD15FF08050EF
:1010600089490860BFF34F8FBFF36F8F01E0FFF72F
:101070004BFA73BD824A11680968002901D1012128
:1010800000E0002101600068002803D11068C068FA
:10109000006800E00020704770B50400FFF7D2FA46
:1010A00005007A4E3068854204D200F0ABF801208A
:1010B000206001E0002020603560280070BD10B580
:1010C0000024416000618A420BD3D21A81698A42AE
:1010D00001D3012410E0011D6A480068FFF705FEF6
:1010E0000AE09A4203D2994201D3012404E0011D8F
:1010F00063480068FFF7F9FD200010BD38B584B0E3
:1011000008E094F8280010F0FE0084F82800200081
:10111000216A8847002269465648006800F0B0F905
:1011200000286DD000980028F4D4029C6069002843
:1011300002D0201DFFF7F4FD03A8FFF7ADFF050067
:10114000009801280DD05AD3032826D009D30528AA
:1011500046D029D3072804D003D3092824D01CD390
:101160004DE094F8280050F0010084F82800019B1D
:101170002A000199A06941182000FFF7A0FF00286C
:10118000C8D094F828004007BBD52A000199A0696F
:1011900041182000FFF7F8FEB9E794F8280010F096
:1011A000FE0084F82800B5E794F8280050F001000C
:1011B00084F828000198A061A069002808D02B00BD
:1011C0002A00A069451929002000FFF778FFA1E750
:1011D000502080F31188BFF34F8FBFF36F8FFEE76E
:1011E00094F82800800703D42000FEF787FF05E06D
:1011F00094F8280010F0FE0084F828008AE789E7B8
:1012000005B030BD80B506E00868C06800685FF0D2
:10121000FF31FFF7CDFE1A49086800680028F3D1B6
:101220000868184A13680B60106001BD70B5FFF7BD
:101230001BFE104C2068002818D1154D2800FFF720
:1012400042FD144E3000FFF73EFD0D4805600D488D
:10125000066000220C210A2000F0D1F820602068EE
:10126000002803D00C49206800F014FAFFF716FE9E
:1012700070BD0000B42D0120B82D012020230008EE
:10128000AC2D0120B02D012004ED00E0BC2D01208B
:10129000842D0120982D012028230008EFF30980D8
:1012A000BFF36F8F214B1A6820E9F04F106009B42B
:1012B0004FF0500080F31188BFF34F8FBFF36F8F53
:1012C000FFF77AFA4FF0000080F3118809BC196823
:1012D0000868B0E8F04F80F30988BFF36F8F70475C
:1012E000124B19680868B0E8F04F80F30988BFF323
:1012F0006F8F4FF0000080F3118870470C48006832
:10130000006880F308884FF0000080F3148862B60C
:1013100061B6BFF34F8FBFF36F8F00DFDFF81400AC
:10132000016841F47001016070470000802C0120C9
:1013300008ED00E088ED00E070B504000E00012526
:10134000002C07D1502080F31188BFF34F8FBFF3DB
:101350006F8FFEE7002C45D0E06B002842D05FF095
:10136000FF30E16BB0FBF1F0216C88423AD3FFF71C
:101370007BFD2168E26B206C424301EB0200A06020
:101380000020A063206860602168E26B521E206C20
:10139000424301EB0200E0605FF0FF3084F844005C
:1013A00084F84500002E12D12069002817D014F1CE
:1013B0001000FFF781FA002811D05FF08050DFF8AD
:1013C0001C120860BFF34F8FBFF36F8F07E014F15B
:1013D0001000FFF778FC14F12400FFF774FCFFF70E
:1013E0005DFD00E00025002D07D1502080F311881D
:1013F000BFF34F8FBFF36F8FFEE7280070BDF8B5C6
:1014000005000F0016000024002D1ED05FF0FF30F5
:10141000B0FBF5F0B84218D307FB05F010F1500F00
:1014200013D207FB05F05030FEF7EAFD0400002C54
:1014300009D0200010F1500200943300DBB23900D3
:10144000280000F00CF82000F2BD002CFBD1502049
:1014500080F31188BFF34F8FBFF36F8FFEE738B56E
:101460001C00049D002901D12D6000E02A60E86382
:10147000296401212800FFF75FFF85F84C4031BD4A
:10148000F7B506000F000024002E07D1502080F38E
:101490001188BFF34F8FBFF36F8FFEE7002F02D18C
:1014A000306C002801D1012000E00020C0B20028EB
:1014B00007D1502080F31188BFF34F8FBFF36F8F98
:1014C000FEE7FFF73FFB002802D10298002801D178
:1014D000012000E00020C0B200280CD1502080F391
:1014E0001188BFF34F8FBFF36F8FFEE7300000F01E
:1014F0008CF8FFF709F8FFF7B7FCB56B002D06D1A4
:10150000029800281FD1FFF7C9FC002064E03900D1
:10151000300000F065F86D1EB563306900280ED00C
:1015200016F11000FFF7C8F9002808D05FF08050CE
:10153000DFF8A8100860BFF34F8FBFF36F8FFFF77E
:10154000ADFC012048E0002C03D16846FFF734FAD7
:101550000124FFF7A3FCFEF7D1FFFFF785FC96F906
:10156000440010F1010F02D1002086F8440096F9E2
:10157000450010F1010F02D1002086F84500FFF769
:101580008DFC02A96846FFF720FA002819D1300027
:1015900000F072F80028A9D0029916F12400FFF794
:1015A00043F9300000F031F8FEF7AEFF0028A2D179
:1015B0005FF0805009490860BFF34F8FBFF36F8F12
:1015C00099E7300000F021F8FEF79EFF300000F0B0
:1015D00053F800288FD00020FEBD000004ED00E08D
:1015E00010B50C00016C00290ED0C168026C1144CA
:1015F000C160C1688268914201D30168C160026C18
:10160000C168200000F098F810BD70B50400FFF725
:101610002BFC94F9455008E014F12400FFF74CF935
:10162000002801D0FFF714FA6D1E280040B20128EF
:1016300002DB606A0028EFD15FF0FF3584F8455087
:10164000FFF72CFCFFF710FC94F9446008E014F15C
:101650001000FFF731F9002801D0FFF7F9F9761EE5
:10166000300040B2012802DB20690028EFD184F865
:101670004450FFF713FC70BD10B50400FFF7F4FBF6
:10168000A06B002801D1012400E00024FFF706FC34
:10169000200010BD30B40022002807D1502080F374
:1016A0001188BFF34F8FBFF36F8FFEE7002914D06F
:1016B000002408E0002A05D155F83430002B01D170
:1016C00005EBC402641C082C07D2074D05EBC403CC
:1016D0005B689842EED105EBC402002A01D011608C
:1016E000506030BC70470000402C012070B50400F1
:1016F0000D001600FFF7B8FB94F9440010F1010F3C
:1017000002D1002084F8440094F9450010F1010F43
:1017100002D1002084F84500FFF7C0FBA06B002831
:1017200005D13200290014F12400FFF797F82000BA
:10173000FFF76BFF70BD000062B38B0708D0521E2D
:1017400011F8013B00F8013B00F024808B07F6D133
:10175000830740F0208000BF103A07D330B4B1E8CF
:101760003810103AA0E83810F9D230BC530724BF23
:10177000B1E80810A0E8081044BF51F8043B40F855
:10178000043BD20724BF31F8022B20F8022B44BFC0
:101790000B7803707047121F17D35B0009D151F803
:1017A000043B20F8023B1B0C121F20F8023BF6D230
:1017B0000BE051F8043B00F8013B1B0A20F8023B08
:1017C0001B0C121F00F8013BF3D238BF121D521E32
:1017D00024BF11F8013B00F8013BF8D87047000026
:1017E000F8B500F02DF803A80190022000902E4BD0
:1017F000C8222E490FF28900FEF724FD012807D0E8
:10180000502080F31188BFF34F8FBFF36F8FFEE737
:1018100002A80190022000900023C82224490FF260
:101820007500FEF70FFD012807D0502080F31188C6
:10183000BFF34F8FBFF36F8FFEE7FEF726FEFEE785
:1018400010B51C481C4C04600C2101710121417130
:1018500000218171002101720021C17100F096F810
:10186000164804600D21017101214171002181712F
:10187000002101720021C17100F088F810BD000044
:1018800080B50C210C4800F0B3F94FF47A70FEF7E4
:10189000D6FDF6E780B50D21074800F0A9F94FF411
:1018A000FA70FEF7CCFDF6E704230008FC220008DE
:1018B00010230008242C0120000C0240302C0120B1
:1018C000C9B2012961D1DFF83813884206D1DFF8A7
:1018D0003403016851F00101016056E0DFF828137C
:1018E000884206D1DFF81C03016851F00201016053
:1018F0004BE0DFF81813884206D1DFF808030168CF
:1019000051F00401016040E0DFF80413884206D181
:10191000DFF8F002016851F00801016035E0DFF8FE
:10192000F412884206D1DFF8DC02016851F01001A0
:1019300001602AE0DFF8E012884206D1DFF8C40235
:10194000016851F0200101601FE0DFF8D0128842E9
:1019500006D1DFF8B002016851F04001016014E0E7
:10196000DFF8BC12884206D1DFF89802016851F016
:101970008001016009E0DFF8AC12884205D1DFF890
:101980008402016851F480710160704770B50400F1
:10199000002001212068FFF793FF6079042815DA01
:1019A00060792179C9B2490010FA01F12068026812
:1019B00003232079C0B2400083409A43206802602C
:1019C00020680068014320680160A4E06079042871
:1019D00013D10121DFF85002026894F9043011FAA2
:1019E00003F31A430260DFF84422136894F90400F9
:1019F000814033EA010111602BE06079052813D1A1
:101A0000DFF828020121026894F9043011FA03F387
:101A10001A430260DFF81022136894F90400814031
:101A200033EA0101116014E06079062811D1DFF872
:101A3000FC010121026894F9043011FA03F31A43FE
:101A40000260DFF8E421136894F90400814019432F
:101A500011602079042190FBF1F12279042392FB9B
:101A6000F3F003FB10202268DFF894319A4201D191
:101A7000002238E02268DFF890319A4201D1012239
:101A800031E02268DFF884319A4201D102222AE053
:101A90002268DFF87C319A4201D1032223E02268D8
:101AA000DFF870319A4201D104221CE02268DFF88D
:101AB00068319A4201D1052215E02268DFF85C31D5
:101AC0009A4201D106220EE02268DFF854319A4290
:101AD00001D1072207E02268DFF848319A4201D19C
:101AE000082200E00022DFF848311D6855F48045E7
:101AF0001D60D2B2C0B280008240DFF83801C9B2A6
:101B000040F82120DFF830110A68012394F904001D
:101B100083401A430A60A1792079C0B2400011FACB
:101B200000F00321226892682379DBB25B0011FA8E
:101B300003F39A4323689A602268926810432268EC
:101B40009060E0792279D2B2520010FA02F2206855
:101B5000C3682079C0B24000814033EA01012068A7
:101B6000C1602068C06802432068C260207A94F98E
:101B7000041010FA01F120684268012394F904006E
:101B800083409A432068426020684068014320688F
:101B90004160607902282AD12079082190FBF1F177
:101BA0002079082390FBF3F203FB120220680B005C
:101BB000DBB200EB830320680D00EDB200EB850083
:101BC000056A0F26D2B290008640B5431D62206898
:101BD0000B00DBB200EB83032068C9B200EB81008D
:101BE000016A647AD2B2900084402143196270BDC8
:101BF0004269012313FA01F151404161704700002D
:101C00000000024030380240000402400008024058
:101C1000000C024000100240001402400018024074
:101C2000001C0240002002400C3C0140083C0140E6
:101C30004438024008380140003C0140FFF7FEBF35
:101C4000FFF7FEBFFFF7FEBFFFF7FEBFFFF7FEBFC8
:101C5000FFF7FEBFFFF7FEBFFFF7FEBFFFF7FEBFB8
:101C6000FFF7FEBFFFF7FEBFFFF7FEBFFFF7FEBFA8
:101C7000FFF7FEBFFFF7FEBFFFF7FEBFFFF7FEBF98
:10200000E0A50120A92100083D1C0008411C000892
:10201000451C0008491C00084D1C00080000000079
:10202000000000000000000000000000E1120008B5
:10203000511C0008000000009D120008C90E000895
:10204000551C0008591C00085D1C0008611C000894
:1020500000000000651C0008691C00086D1C0008D9
:10206000711C0008751C0008791C00087D1C000804
:10207000811C0008851C0008891C00088D1C0008B4
:10208000911C0008951C0008991C00089D1C000864
:10209000A11C0008A51C0008A91C0008AD1C000814
:1020A000B11C0008B51C0008B91C0008BD1C0008C4
:1020B000C11C0008C51C0008C91C0008CD1C000874
:1020C000D11C0008D51C0008D91C0008DD1C000824
:1020D000E11C0008E51C0008E91C0008ED1C0008D4
:1020E000F11C0008F51C0008F91C0008FD1C000884
:1020F000011D0008051D0008091D00080D1D000830
:10210000111D0008151D0008191D00081D1D0008DF
:10211000211D0008251D0008291D00082D1D00088F
:10212000311D0008351D0008391D00083D1D00083F
:10213000411D0008451D0008491D00084D1D0008EF
:10214000511D0008551D0008591D00085D1D00089F
:10215000611D0008651D0008691D00086D1D00084F
:10216000711D0008751D0008791D00087D1D0008FF
:10217000811D0008851D0008891D00088D1D0008AF
:10218000951D0008911D00080000000000000000DF
:10219000000000000000000000000000000000003F
:1021A000991D00089D1D000800F00EF800F027F8AA
:1021B00000F029F800F02BF800F037F800F04BF8A9
:1021C00062B6FFF70DFB01294FF000004FF0000150
:1021D0004FF000024FF000034FF000044FF00005F5
:1021E0004FF000064FF000074FF000084FF00009D5
:1021F0004FF0000A4FF0000B4FF0000CF74620485C
:1022000020490160F746204880F30888F7461F48B8
:10221000002809D01E491F4A521A013A04DD002045
:10222000002309C1083AFCDAF7461B481B4E351A51
:102230000C350C3D002D0DD00168426883680C30D0
:102240009C1A002CF5D014680C60491C521C9A4250
:10225000EFD0F8E7F7461248124E351A0835083D18
:10226000002D0BD0016842680830541A002CF6D0BB
:1022700000240C60491C8A42F1D0F9E7F7460000BF
:1022800008ED00E000B00120E0A501200100000001
:102290000000002000F40120B0220008E022000825
:1022A000E0220008F8220008000000000000000002
:1022B00000B0012000200008A82100080000002034
:1022C0003023000838230008A8B101203823000873
:1022D00038230008F4CC01203823000838230008F4
:1022E00008000020C12D0120A8B10120A8B10120C3
:1022F000F4CC0120F4CC0120080000005461736B81
:102300002D3100004920616D205461736B2D310027
:102310005461736B2D32000049444C4500000000AD
:10232000546D722053766300546D725100000000AA
:08233000AAAAAAAA04000000F9
:04000005080021A925
:00000001FF
